{
  "transactions": [
    {
      "hash": "0xf9651859efe60ccb2326b78023241e3c6f32e49d6e60006176f34ade58d5b1cf",
      "transactionType": "CALL",
      "contractName": null,
      "contractAddress": "0x779877a7b0d9e8603169ddbd7836e478b4624789",
      "function": "transferAndCall(address,uint256,bytes)",
      "arguments": [
        "0x9DdfaCa8183c41ad55329BdeeD9F6A8d53168B1B",
        "3000000000000000000",
        "0x9f00e088561febe8b230fa2a1a946847ea5973e1869c2fa7f90d8cd58f89d51f"
      ],
      "transaction": {
        "from": "0x681f8f11415b81c0ef61c24b5e7a0c66cda6af99",
        "to": "0x779877a7b0d9e8603169ddbd7836e478b4624789",
        "gas": "0x1a8ee",
        "value": "0x0",
        "input": "0x4000aea00000000000000000000000009ddfaca8183c41ad55329bdeed9f6a8d53168b1b00000000000000000000000000000000000000000000000029a2241af62c0000000000000000000000000000000000000000000000000000000000000000006000000000000000000000000000000000000000000000000000000000000000209f00e088561febe8b230fa2a1a946847ea5973e1869c2fa7f90d8cd58f89d51f",
        "nonce": "0x1e",
        "chainId": "0xaa36a7"
      },
      "additionalContracts": [],
      "isFixedGasLimit": false
    }
  ],
  "receipts": [
    {
      "status": "0x1",
      "cumulativeGasUsed": "0xdc9085",
      "logs": [
        {
          "address": "0x779877a7b0d9e8603169ddbd7836e478b4624789",
          "topics": [
            "0xddf252ad1be2c89b69c2b068fc378daa952ba7f163c4a11628f55a4df523b3ef",
            "0x000000000000000000000000681f8f11415b81c0ef61c24b5e7a0c66cda6af99",
            "0x0000000000000000000000009ddfaca8183c41ad55329bdeed9f6a8d53168b1b"
          ],
          "data": "0x00000000000000000000000000000000000000000000000029a2241af62c0000",
          "blockHash": "0x7166605eab2b2e9dc4faa50f0022190b90bd717f00042a878bc4b81fd04db51b",
          "blockNumber": "0x8197c3",
          "blockTimestamp": "0x684385b0",
          "transactionHash": "0xf9651859efe60ccb2326b78023241e3c6f32e49d6e60006176f34ade58d5b1cf",
          "transactionIndex": "0x5a",
          "logIndex": "0x83",
          "removed": false
        },
        {
          "address": "0x779877a7b0d9e8603169ddbd7836e478b4624789",
          "topics": [
            "0xe19260aff97b920c7df27010903aeb9c8d2be5d310a2c67824cf3f15396e4c16",
            "0x000000000000000000000000681f8f11415b81c0ef61c24b5e7a0c66cda6af99",
            "0x0000000000000000000000009ddfaca8183c41ad55329bdeed9f6a8d53168b1b"
          ],
          "data": "0x00000000000000000000000000000000000000000000000029a2241af62c0000000000000000000000000000000000000000000000000000000000000000004000000000000000000000000000000000000000000000000000000000000000209f00e088561febe8b230fa2a1a946847ea5973e1869c2fa7f90d8cd58f89d51f",
          "blockHash": "0x7166605eab2b2e9dc4faa50f0022190b90bd717f00042a878bc4b81fd04db51b",
          "blockNumber": "0x8197c3",
          "blockTimestamp": "0x684385b0",
          "transactionHash": "0xf9651859efe60ccb2326b78023241e3c6f32e49d6e60006176f34ade58d5b1cf",
          "transactionIndex": "0x5a",
          "logIndex": "0x84",
          "removed": false
        },
        {
          "address": "0x9ddfaca8183c41ad55329bdeed9f6a8d53168b1b",
          "topics": [
            "0x1ced9348ff549fceab2ac57cd3a9de38edaaab274b725ee82c23e8fc8c4eec7a",
            "0x9f00e088561febe8b230fa2a1a946847ea5973e1869c2fa7f90d8cd58f89d51f"
          ],
          "data": "0x000000000000000000000000000000000000000000000000000000000000000000000000000000000000000000000000000000000000000029a2241af62c0000",
          "blockHash": "0x7166605eab2b2e9dc4faa50f0022190b90bd717f00042a878bc4b81fd04db51b",
          "blockNumber": "0x8197c3",
          "blockTimestamp": "0x684385b0",
          "transactionHash": "0xf9651859efe60ccb2326b78023241e3c6f32e49d6e60006176f34ade58d5b1cf",
          "transactionIndex": "0x5a",
          "logIndex": "0x85",
          "removed": false
        }
      ],
      "logsBloom": "0x00000004000000000000000000000000000000000020000000002000020000010000000000000000000000000000000000000000000000000000000000002000000000000000000000000008000000000000000000000000000020000020000008000000000000000000000000000000000000000000000000000010000040000000000080000000000000010000800000000020000000000000000000000000000000000000000000000000010000000000000000000000000004000000000000000002000000000000000001000000000000000000000100000000000000000010000000000000800000000000000000000000000000000000000000100000",
      "type": "0x2",
      "transactionHash": "0xf9651859efe60ccb2326b78023241e3c6f32e49d6e60006176f34ade58d5b1cf",
      "transactionIndex": "0x5a",
      "blockHash": "0x7166605eab2b2e9dc4faa50f0022190b90bd717f00042a878bc4b81fd04db51b",
      "blockNumber": "0x8197c3",
      "gasUsed": "0x133a5",
      "effectiveGasPrice": "0xf4258",
      "from": "0x681f8f11415b81c0ef61c24b5e7a0c66cda6af99",
      "to": "0x779877a7b0d9e8603169ddbd7836e478b4624789",
      "contractAddress": null
    }
  ],
  "libraries": [],
  "pending": [],
  "returns": {},
  "timestamp": 1749255600,
  "chain": 11155111,
  "commit": null
}